{
  "contractName": "ANS",
  "abi": [
    {
      "constant": false,
      "inputs": [],
      "name": "renounceOwnership",
      "outputs": [],
      "payable": false,
      "stateMutability": "nonpayable",
      "type": "function"
    },
    {
      "constant": true,
      "inputs": [],
      "name": "owner",
      "outputs": [
        {
          "name": "",
          "type": "address"
        }
      ],
      "payable": false,
      "stateMutability": "view",
      "type": "function"
    },
    {
      "constant": true,
      "inputs": [],
      "name": "isOwner",
      "outputs": [
        {
          "name": "",
          "type": "bool"
        }
      ],
      "payable": false,
      "stateMutability": "view",
      "type": "function"
    },
    {
      "constant": false,
      "inputs": [
        {
          "name": "newOwner",
          "type": "address"
        }
      ],
      "name": "transferOwnership",
      "outputs": [],
      "payable": false,
      "stateMutability": "nonpayable",
      "type": "function"
    },
    {
      "inputs": [
        {
          "name": "owner",
          "type": "address"
        }
      ],
      "payable": false,
      "stateMutability": "nonpayable",
      "type": "constructor"
    },
    {
      "anonymous": false,
      "inputs": [
        {
          "indexed": true,
          "name": "previousOwner",
          "type": "address"
        },
        {
          "indexed": true,
          "name": "newOwner",
          "type": "address"
        }
      ],
      "name": "OwnershipTransferred",
      "type": "event"
    },
    {
      "constant": false,
      "inputs": [
        {
          "name": "addr",
          "type": "address"
        }
      ],
      "name": "setStorageAddress",
      "outputs": [],
      "payable": false,
      "stateMutability": "nonpayable",
      "type": "function"
    },
    {
      "constant": false,
      "inputs": [
        {
          "name": "name",
          "type": "string"
        }
      ],
      "name": "assignName",
      "outputs": [
        {
          "name": "success",
          "type": "bool"
        }
      ],
      "payable": false,
      "stateMutability": "nonpayable",
      "type": "function"
    },
    {
      "constant": false,
      "inputs": [
        {
          "name": "addr",
          "type": "address"
        },
        {
          "name": "minLimit",
          "type": "uint8"
        }
      ],
      "name": "setMinLimit",
      "outputs": [
        {
          "name": "success",
          "type": "bool"
        }
      ],
      "payable": false,
      "stateMutability": "nonpayable",
      "type": "function"
    },
    {
      "constant": false,
      "inputs": [
        {
          "name": "newOwner",
          "type": "address"
        }
      ],
      "name": "transferStorageOwnership",
      "outputs": [
        {
          "name": "success",
          "type": "bool"
        }
      ],
      "payable": false,
      "stateMutability": "nonpayable",
      "type": "function"
    },
    {
      "constant": false,
      "inputs": [],
      "name": "renounceStorageOwnership",
      "outputs": [
        {
          "name": "success",
          "type": "bool"
        }
      ],
      "payable": false,
      "stateMutability": "nonpayable",
      "type": "function"
    },
    {
      "constant": true,
      "inputs": [
        {
          "name": "name",
          "type": "string"
        }
      ],
      "name": "resolveName",
      "outputs": [
        {
          "name": "resolved",
          "type": "address"
        }
      ],
      "payable": false,
      "stateMutability": "view",
      "type": "function"
    },
    {
      "constant": true,
      "inputs": [
        {
          "name": "addr",
          "type": "address"
        }
      ],
      "name": "getMinLimit",
      "outputs": [
        {
          "name": "limit",
          "type": "uint8"
        }
      ],
      "payable": false,
      "stateMutability": "view",
      "type": "function"
    }
  ],
  "bytecode": "0x608060405234801561001057600080fd5b506040516020806117438339810180604052602081101561003057600080fd5b505160008054600160a060020a031916600160a060020a0380841691909117808355604051849391909216917f8be0079c531659141344cd1fd0a4f28419497f9722a3daafe3b4186f6b6457e0908290a35080600160a060020a03811615156100fa57604080517f08c379a000000000000000000000000000000000000000000000000000000000815260206004820152601760248201527f52657175697265732076616c696420616464726573732e000000000000000000604482015290519081900360640190fd5b50506116388061010b6000396000f3fe608060405234801561001057600080fd5b50600436106100c6576000357c010000000000000000000000000000000000000000000000000000000090048063956794b11161008e578063956794b1146101ab578063b3d4184a146101e7578063bc19bce514610216578063c1fb241114610286578063ee0b54451461028e578063f2fde38b146102b4576100c6565b8063318f91d3146100cb57806359b910d61461014f578063715018a6146101775780638da5cb5b1461017f5780638f32d59b146101a3575b600080fd5b61013b600480360360208110156100e157600080fd5b8101906020810181356401000000008111156100fc57600080fd5b82018360208201111561010e57600080fd5b8035906020019184600183028401116401000000008311171561013057600080fd5b5090925090506102da565b604080519115158252519081900360200190f35b6101756004803603602081101561016557600080fd5b5035600160a060020a03166107e3565b005b61017561091d565b6101876109bc565b60408051600160a060020a039092168252519081900360200190f35b61013b6109cb565b6101d1600480360360208110156101c157600080fd5b5035600160a060020a03166109dc565b6040805160ff9092168252519081900360200190f35b61013b600480360360408110156101fd57600080fd5b508035600160a060020a0316906020013560ff16610ae5565b6101876004803603602081101561022c57600080fd5b81019060208101813564010000000081111561024757600080fd5b82018360208201111561025957600080fd5b8035906020019184600183028401116401000000008311171561027b57600080fd5b509092509050610c7b565b61013b610e24565b61013b600480360360208110156102a457600080fd5b5035600160a060020a0316610f49565b610175600480360360208110156102ca57600080fd5b5035600160a060020a031661106a565b600154600090600160a060020a0316151561032d576040805160e560020a62461bcd02815260206004820152601860248201526000805160206115c3833981519152604482015290519081900360640190fd5b600154604080517f956794b10000000000000000000000000000000000000000000000000000000081523360048201529051600092600160a060020a03169163956794b1916024808301926020929190829003018186803b15801561039157600080fd5b505afa1580156103a5573d6000803e3d6000fd5b505050506040513d60208110156103bb57600080fd5b50519050600060ff82168110156103d35750806103d7565b5060085b606061041886868080601f01602080910402602001604051908101604052809392919081815260200183838082843760009201919091525061116492505050565b905061042381611167565b9050606061043082611164565b90508260ff16825110151515610490576040805160e560020a62461bcd02815260206004820152601260248201527f6e616d6520697320746f6f2073686f72742e0000000000000000000000000000604482015290519081900360640190fd5b8151601410156104ea576040805160e560020a62461bcd02815260206004820152601160248201527f6e616d6520697320746f6f206c6f6e672e000000000000000000000000000000604482015290519081900360640190fd5b6104f382611203565b1515610549576040805160e560020a62461bcd02815260206004820152601c60248201527f6e616d652063616e6e6f7420626520612068657820737472696e672e00000000604482015290519081900360640190fd5b6105528261127f565b15156105925760405160e560020a62461bcd0281526004018080602001828103825260218152602001806115a26021913960400191505060405180910390fd5b6001546040517fbc19bce5000000000000000000000000000000000000000000000000000000008152602060048201818152845160248401528451600094600160a060020a03169363bc19bce5938793928392604401918501908083838b5b838110156106095781810151838201526020016105f1565b50505050905090810190601f1680156106365780820380516001836020036101000a031916815260200191505b509250505060206040518083038186803b15801561065357600080fd5b505afa158015610667573d6000803e3d6000fd5b505050506040513d602081101561067d57600080fd5b5051600160a060020a0316146106dd576040805160e560020a62461bcd02815260206004820152601660248201527f6e616d6520697320616c72656164792074616b656e2e00000000000000000000604482015290519081900360640190fd5b600154604080517f75ed57ce000000000000000000000000000000000000000000000000000000008152336004820181815260248301938452855160448401528551600160a060020a03909516946375ed57ce949293879391606490910190602085019080838360005b8381101561075f578181015183820152602001610747565b50505050905090810190601f16801561078c5780820380516001836020036101000a031916815260200191505b509350505050602060405180830381600087803b1580156107ac57600080fd5b505af11580156107c0573d6000803e3d6000fd5b505050506040513d60208110156107d657600080fd5b5051979650505050505050565b6107eb6109cb565b151561082b5760405160e560020a62461bcd02815260040180806020018281038252602a8152602001806115e3602a913960400191505060405180910390fd5b80600160a060020a038116151561088c576040805160e560020a62461bcd02815260206004820152601760248201527f52657175697265732076616c696420616464726573732e000000000000000000604482015290519081900360640190fd5b600154600160a060020a0316156108ed576040805160e560020a62461bcd02815260206004820152601c60248201527f53746f72616765206164647265737320616c7265616479207365742e00000000604482015290519081900360640190fd5b506001805473ffffffffffffffffffffffffffffffffffffffff1916600160a060020a0392909216919091179055565b6109256109cb565b15156109655760405160e560020a62461bcd02815260040180806020018281038252602a8152602001806115e3602a913960400191505060405180910390fd5b60008054604051600160a060020a03909116907f8be0079c531659141344cd1fd0a4f28419497f9722a3daafe3b4186f6b6457e0908390a36000805473ffffffffffffffffffffffffffffffffffffffff19169055565b600054600160a060020a031690565b600054600160a060020a0316331490565b600154600090600160a060020a03161515610a2f576040805160e560020a62461bcd02815260206004820152601860248201526000805160206115c3833981519152604482015290519081900360640190fd5b600154604080517f956794b1000000000000000000000000000000000000000000000000000000008152600160a060020a0385811660048301529151600093929092169163956794b191602480820192602092909190829003018186803b158015610a9957600080fd5b505afa158015610aad573d6000803e3d6000fd5b505050506040513d6020811015610ac357600080fd5b50519050600060ff82161115610ada579050610ae0565b60089150505b919050565b6000610aef6109cb565b1515610b2f5760405160e560020a62461bcd02815260040180806020018281038252602a8152602001806115e3602a913960400191505060405180910390fd5b600154600160a060020a03161515610b7f576040805160e560020a62461bcd02815260206004820152601860248201526000805160206115c3833981519152604482015290519081900360640190fd5b60018260ff1610158015610b975750600860ff831611155b1515610bd75760405160e560020a62461bcd02815260040180806020018281038252602281526020018061155b6022913960400191505060405180910390fd5b600154604080517fb3d4184a000000000000000000000000000000000000000000000000000000008152600160a060020a03868116600483015260ff861660248301529151919092169163b3d4184a9160448083019260209291908290030181600087803b158015610c4857600080fd5b505af1158015610c5c573d6000803e3d6000fd5b505050506040513d6020811015610c7257600080fd5b50519392505050565b600154600090600160a060020a03161515610cce576040805160e560020a62461bcd02815260206004820152601860248201526000805160206115c3833981519152604482015290519081900360640190fd5b6060610d0f84848080601f01602080910402602001604051908101604052809392919081815260200183838082843760009201919091525061116492505050565b9050610d1a81611167565b90506060610d2782611164565b6001546040517fbc19bce5000000000000000000000000000000000000000000000000000000008152602060048201818152845160248401528451949550600160a060020a039093169363bc19bce5938693909283926044909201919085019080838360005b83811015610da5578181015183820152602001610d8d565b50505050905090810190601f168015610dd25780820380516001836020036101000a031916815260200191505b509250505060206040518083038186803b158015610def57600080fd5b505afa158015610e03573d6000803e3d6000fd5b505050506040513d6020811015610e1957600080fd5b505195945050505050565b6000610e2e6109cb565b1515610e6e5760405160e560020a62461bcd02815260040180806020018281038252602a8152602001806115e3602a913960400191505060405180910390fd5b600154600160a060020a03161515610ebe576040805160e560020a62461bcd02815260206004820152601860248201526000805160206115c3833981519152604482015290519081900360640190fd5b600160009054906101000a9004600160a060020a0316600160a060020a031663715018a66040518163ffffffff167c0100000000000000000000000000000000000000000000000000000000028152600401600060405180830381600087803b158015610f2a57600080fd5b505af1158015610f3e573d6000803e3d6000fd5b505050506001905090565b6000610f536109cb565b1515610f935760405160e560020a62461bcd02815260040180806020018281038252602a8152602001806115e3602a913960400191505060405180910390fd5b600154600160a060020a03161515610fe3576040805160e560020a62461bcd02815260206004820152601860248201526000805160206115c3833981519152604482015290519081900360640190fd5b600154604080517ff2fde38b000000000000000000000000000000000000000000000000000000008152600160a060020a0385811660048301529151919092169163f2fde38b91602480830192600092919082900301818387803b15801561104a57600080fd5b505af115801561105e573d6000803e3d6000fd5b50600195945050505050565b6110726109cb565b15156110b25760405160e560020a62461bcd02815260040180806020018281038252602a8152602001806115e3602a913960400191505060405180910390fd5b600160a060020a03811615156110fc5760405160e560020a62461bcd02815260040180806020018281038252602581526020018061157d6025913960400191505060405180910390fd5b60008054604051600160a060020a03808516939216917f8be0079c531659141344cd1fd0a4f28419497f9722a3daafe3b4186f6b6457e091a36000805473ffffffffffffffffffffffffffffffffffffffff1916600160a060020a0392909216919091179055565b90565b60608082516040519080825280601f01601f191660200182016040528015611196576020820181803883390190505b50905060005b83518110156111fc576111ce84828151811015156111b657fe5b90602001015160f860020a900460f860020a026114a3565b82828151811015156111dc57fe5b906020010190600160f860020a031916908160001a90535060010161119c565b5092915050565b600081600081518110151561121457fe5b90602001015160f860020a900460f860020a02600160f860020a031916603060f860020a0214158015611279575081600181518110151561125157fe5b90602001015160f860020a900460f860020a02600160f860020a031916607860f860020a0214155b92915050565b6000805b825181101561149a5782517f3000000000000000000000000000000000000000000000000000000000000000908490839081106112bc57fe5b90602001015160f860020a900460f860020a02600160f860020a0319161080611384575082517f39000000000000000000000000000000000000000000000000000000000000009084908390811061131057fe5b90602001015160f860020a900460f860020a02600160f860020a031916118015611384575082517f41000000000000000000000000000000000000000000000000000000000000009084908390811061136557fe5b90602001015160f860020a900460f860020a02600160f860020a031916105b8061142e575082517f5a00000000000000000000000000000000000000000000000000000000000000908490839081106113ba57fe5b90602001015160f860020a900460f860020a02600160f860020a03191611801561142e575082517f61000000000000000000000000000000000000000000000000000000000000009084908390811061140f57fe5b90602001015160f860020a900460f860020a02600160f860020a031916105b80611483575082517f7a000000000000000000000000000000000000000000000000000000000000009084908390811061146457fe5b90602001015160f860020a900460f860020a02600160f860020a031916115b15611492576000915050610ae0565b600101611283565b50600192915050565b60007f41000000000000000000000000000000000000000000000000000000000000007fff0000000000000000000000000000000000000000000000000000000000000083161080159061153957507f5a000000000000000000000000000000000000000000000000000000000000007fff00000000000000000000000000000000000000000000000000000000000000831611155b15611556578160f860020a900460200160f860020a029050610ae0565b509056fe6d696e4c656e677468206d757374206265206265747765656e203120616e6420382e52657175697265732076616c6964206164647265737320666f72206e6577206f776e65722e6e616d6520636f6e7461696e7320696e76616c696420636861726163746572732e53746f726167652061646472657373206e6f74207365742e00000000000000004f776e6572206973206f6e6c7920616c6c6f77656420746f2063616c6c2074686973206d6574686f642ea165627a7a72305820ce902e6dedc923b927597ff7d0a14a0da48c8ad860a81a7529485e2dff79418f0029",
  "source": "pragma solidity ^0.5.4;\n\nimport \"../storage/IANSStorage.sol\";\nimport \"../lib/Ownable.sol\";\nimport \"../lib/Utils.sol\";\n\n/// @title Address Name Service contract\ncontract ANS is Ownable {\n    using Utils for bytes;\n    using Utils for string;\n\n    uint8 constant internal NAME_MIN_LIMIT = 8;\n    uint8 constant internal NAME_MAX_LIMIT = 20;\n\n    address internal _storageAddress;\n\n    modifier validStorageAddress() {\n        require(_storageAddress != address(0), \"Storage address not set.\");\n        _;\n    }\n\n    /// @param owner Owner of the contract.\n    constructor(address owner) Ownable(owner) public validAddress(owner) {\n    }\n\n    /// @dev Sets the storage address and enables all other functions.\n    ///      All other functions rely on a valid storage contract address\n    ///      so this function needs to be called first.\n    /// @param addr Address of the storage contract.\n    function setStorageAddress(\n        address addr) \n        external \n        onlyOwner\n        validAddress(addr) \n    {\n        require(_storageAddress == address(0), \"Storage address already set.\");\n        _storageAddress = addr;\n    }\n\n    /// @dev Calls the storage contract and assigns the name for the msg.sender.\n    /// @param name Name to add a name record for. \n    /// @return True if the assignment succeeds.\n    function assignName(\n        string calldata name)\n        external\n        validStorageAddress\n        returns (bool success)\n    {\n        // Define min limit\n        uint8 storageLimit = IANSStorage(_storageAddress).getMinLimit(msg.sender);\n        uint8 minLimit;\n        if (storageLimit > 0) {\n            minLimit = storageLimit;\n        } else {\n            minLimit = NAME_MIN_LIMIT;\n        }\n        \n        // Convert to bytes to check length and characters\n        bytes memory nameBytes = name.toBytes();\n        // Convert to lowercase\n        nameBytes = nameBytes.toLower();\n        string memory lowerName = nameBytes.toString();\n\n        // Checks\n        require(nameBytes.length >= minLimit, \"name is too short.\");\n        require(nameBytes.length <= NAME_MAX_LIMIT, \"name is too long.\");\n        require(nameBytes.validateNotHex(), \"name cannot be a hex string.\");\n        require(\n            nameBytes.validateLettersAndNumbers(), \n            \"name contains invalid characters.\"\n        );\n        require(\n            IANSStorage(_storageAddress).resolveName(lowerName) == address(0), \n            \"name is already taken.\"\n        );\n\n        // Call storage contract and assign the name\n        return IANSStorage(_storageAddress).assignName(msg.sender, lowerName);\n    }\n\n    /// @dev Sets the name min limit for a given address.\n    /// @param addr Address to set the limit on.\n    /// @param minLimit Minimum length of any future added name records.\n    /// @return True if setting the limit succeeds.\n    function setMinLimit(\n        address addr,\n        uint8 minLimit)\n        external\n        onlyOwner\n        validStorageAddress\n        returns (bool success)\n    {\n        require(\n            minLimit >= 1 && minLimit <= NAME_MIN_LIMIT, \n            \"minLength must be between 1 and 8.\"\n        );\n\n        return IANSStorage(_storageAddress).setMinLimit(addr, minLimit);\n    }\n\n    /// @dev Changes the storage owner.\n    ///      Changing it will remove the permissions from this contract. \n    ///      The new owner should be another ANS contract.\n    ///      ONLY FOR PURPOSES OF UPGRADING THE ANS CONTRACT!\n    /// @param newOwner New owner of the storage contract.\n    /// @return True if changing ownership succeeds.\n    function transferStorageOwnership(\n        address newOwner) \n        external \n        onlyOwner \n        validStorageAddress \n        returns (bool success) \n    {\n        IANSStorage(_storageAddress).transferOwnership(newOwner);\n        return true;\n    }\n\n    /// @dev Renounces the storage owner.\n    ///      Renouncing the owner will render the storage contract useless.\n    ///      ONLY FOR PURPOSES OF SELF-DESTRUCTING THE CONTRACT!\n    /// @return True if renouncing ownership succeeds.\n    function renounceStorageOwnership() \n        external \n        onlyOwner \n        validStorageAddress \n        returns (bool success) \n    {\n        IANSStorage(_storageAddress).renounceOwnership();\n        return true;\n    }\n\n    /// @param name Name to resolve to an address.\n    /// @return Address associated with the name.\n    function resolveName(\n        string calldata name)\n        external\n        view\n        validStorageAddress\n        returns (address resolved)\n    {\n        // Convert to lowercase\n        bytes memory nameBytes = name.toBytes();\n        nameBytes = nameBytes.toLower();\n        string memory lowerName = nameBytes.toString();\n\n        return IANSStorage(_storageAddress).resolveName(lowerName);\n    }\n\n    /// @param addr Address to find the min limit for.\n    /// @return Min limit of name length.\n    function getMinLimit(\n        address addr)\n        external\n        view\n        validStorageAddress\n        returns (uint8 limit)\n    {\n        uint8 limit = IANSStorage(_storageAddress).getMinLimit(addr);\n        if (limit > 0) {\n            return limit;\n        }\n        return NAME_MIN_LIMIT;\n    }\n}\n",
  "sourcePath": "/Users/deric/coding/ghuchain/address-name-service/contracts/ans/ANS.sol",
  "compiler": {
    "name": "solc",
    "version": "0.5.4+commit.9549d8ff.Emscripten.clang"
  },
  "schemaVersion": "3.0.2",
  "updatedAt": "2019-03-11T08:02:15.834Z",
  "devdoc": {
    "methods": {
      "assignName(string)": {
        "details": "Calls the storage contract and assigns the name for the msg.sender.",
        "params": {
          "name": "Name to add a name record for. "
        },
        "return": "True if the assignment succeeds."
      },
      "constructor": {
        "params": {
          "owner": "Owner of the contract."
        }
      },
      "getMinLimit(address)": {
        "params": {
          "addr": "Address to find the min limit for."
        },
        "return": "Min limit of name length."
      },
      "isOwner()": {
        "return": "true if `msg.sender` is the owner of the contract."
      },
      "owner()": {
        "return": "the address of the owner."
      },
      "renounceOwnership()": {
        "details": "Allows the current owner to relinquish control of the contract."
      },
      "renounceStorageOwnership()": {
        "details": "Renounces the storage owner.      Renouncing the owner will render the storage contract useless.      ONLY FOR PURPOSES OF SELF-DESTRUCTING THE CONTRACT!",
        "return": "True if renouncing ownership succeeds."
      },
      "resolveName(string)": {
        "params": {
          "name": "Name to resolve to an address."
        },
        "return": "Address associated with the name."
      },
      "setMinLimit(address,uint8)": {
        "details": "Sets the name min limit for a given address.",
        "params": {
          "addr": "Address to set the limit on.",
          "minLimit": "Minimum length of any future added name records."
        },
        "return": "True if setting the limit succeeds."
      },
      "setStorageAddress(address)": {
        "details": "Sets the storage address and enables all other functions.      All other functions rely on a valid storage contract address      so this function needs to be called first.",
        "params": {
          "addr": "Address of the storage contract."
        }
      },
      "transferOwnership(address)": {
        "details": "Allows the current owner to transfer control of the contract to a newOwner.",
        "params": {
          "newOwner": "The address to transfer ownership to."
        }
      },
      "transferStorageOwnership(address)": {
        "details": "Changes the storage owner.      Changing it will remove the permissions from this contract.       The new owner should be another ANS contract.      ONLY FOR PURPOSES OF UPGRADING THE ANS CONTRACT!",
        "params": {
          "newOwner": "New owner of the storage contract."
        },
        "return": "True if changing ownership succeeds."
      }
    },
    "title": "Address Name Service contract"
  },
  "userdoc": {
    "methods": {
      "renounceOwnership()": {
        "notice": "Renouncing to ownership will leave the contract without an owner. It will not be possible to call the functions with the `onlyOwner` modifier anymore."
      }
    }
  }
}