{
  "contractName": "ANSStorage",
  "abi": [
    {
      "constant": false,
      "inputs": [],
      "name": "renounceOwnership",
      "outputs": [],
      "payable": false,
      "stateMutability": "nonpayable",
      "type": "function"
    },
    {
      "constant": true,
      "inputs": [],
      "name": "owner",
      "outputs": [
        {
          "name": "",
          "type": "address"
        }
      ],
      "payable": false,
      "stateMutability": "view",
      "type": "function"
    },
    {
      "constant": true,
      "inputs": [],
      "name": "isOwner",
      "outputs": [
        {
          "name": "",
          "type": "bool"
        }
      ],
      "payable": false,
      "stateMutability": "view",
      "type": "function"
    },
    {
      "constant": false,
      "inputs": [
        {
          "name": "newOwner",
          "type": "address"
        }
      ],
      "name": "transferOwnership",
      "outputs": [],
      "payable": false,
      "stateMutability": "nonpayable",
      "type": "function"
    },
    {
      "inputs": [
        {
          "name": "owner",
          "type": "address"
        }
      ],
      "payable": false,
      "stateMutability": "nonpayable",
      "type": "constructor"
    },
    {
      "anonymous": false,
      "inputs": [
        {
          "indexed": true,
          "name": "previousOwner",
          "type": "address"
        },
        {
          "indexed": true,
          "name": "newOwner",
          "type": "address"
        }
      ],
      "name": "OwnershipTransferred",
      "type": "event"
    },
    {
      "anonymous": false,
      "inputs": [
        {
          "indexed": true,
          "name": "name",
          "type": "string"
        },
        {
          "indexed": true,
          "name": "addr",
          "type": "address"
        }
      ],
      "name": "NameAssigned",
      "type": "event"
    },
    {
      "anonymous": false,
      "inputs": [
        {
          "indexed": true,
          "name": "addr",
          "type": "address"
        },
        {
          "indexed": false,
          "name": "minLimit",
          "type": "uint8"
        }
      ],
      "name": "NameLimitSet",
      "type": "event"
    },
    {
      "constant": false,
      "inputs": [
        {
          "name": "addr",
          "type": "address"
        },
        {
          "name": "name",
          "type": "string"
        }
      ],
      "name": "assignName",
      "outputs": [
        {
          "name": "success",
          "type": "bool"
        }
      ],
      "payable": false,
      "stateMutability": "nonpayable",
      "type": "function"
    },
    {
      "constant": false,
      "inputs": [
        {
          "name": "addr",
          "type": "address"
        },
        {
          "name": "limit",
          "type": "uint8"
        }
      ],
      "name": "setMinLimit",
      "outputs": [
        {
          "name": "success",
          "type": "bool"
        }
      ],
      "payable": false,
      "stateMutability": "nonpayable",
      "type": "function"
    },
    {
      "constant": true,
      "inputs": [
        {
          "name": "name",
          "type": "string"
        }
      ],
      "name": "resolveName",
      "outputs": [
        {
          "name": "resolved",
          "type": "address"
        }
      ],
      "payable": false,
      "stateMutability": "view",
      "type": "function"
    },
    {
      "constant": true,
      "inputs": [
        {
          "name": "addr",
          "type": "address"
        }
      ],
      "name": "getMinLimit",
      "outputs": [
        {
          "name": "limit",
          "type": "uint8"
        }
      ],
      "payable": false,
      "stateMutability": "view",
      "type": "function"
    }
  ],
  "bytecode": "0x608060405234801561001057600080fd5b506040516020806108678339810180604052602081101561003057600080fd5b505160008054600160a060020a031916600160a060020a0380841691909117808355604051849391909216917f8be0079c531659141344cd1fd0a4f28419497f9722a3daafe3b4186f6b6457e0908290a35080600160a060020a03811615156100fa57604080517f08c379a000000000000000000000000000000000000000000000000000000000815260206004820152601760248201527f52657175697265732076616c696420616464726573732e000000000000000000604482015290519081900360640190fd5b505061075c8061010b6000396000f3fe608060405234801561001057600080fd5b50600436106100a5576000357c010000000000000000000000000000000000000000000000000000000090048063956794b111610078578063956794b114610174578063b3d4184a146101b0578063bc19bce5146101df578063f2fde38b1461024f576100a5565b8063715018a6146100aa57806375ed57ce146100b45780638da5cb5b146101485780638f32d59b1461016c575b600080fd5b6100b2610275565b005b610134600480360360408110156100ca57600080fd5b600160a060020a0382351691908101906040810160208201356401000000008111156100f557600080fd5b82018360208201111561010757600080fd5b8035906020019184600183028401116401000000008311171561012957600080fd5b509092509050610314565b604080519115158252519081900360200190f35b61015061045d565b60408051600160a060020a039092168252519081900360200190f35b61013461046c565b61019a6004803603602081101561018a57600080fd5b5035600160a060020a031661047d565b6040805160ff9092168252519081900360200190f35b610134600480360360408110156101c657600080fd5b508035600160a060020a0316906020013560ff1661049b565b610150600480360360208110156101f557600080fd5b81019060208101813564010000000081111561021057600080fd5b82018360208201111561022257600080fd5b8035906020019184600183028401116401000000008311171561024457600080fd5b5090925090506105ad565b6100b26004803603602081101561026557600080fd5b5035600160a060020a03166105e7565b61027d61046c565b15156102bd5760405160e560020a62461bcd02815260040180806020018281038252602a815260200180610707602a913960400191505060405180910390fd5b60008054604051600160a060020a03909116907f8be0079c531659141344cd1fd0a4f28419497f9722a3daafe3b4186f6b6457e0908390a36000805473ffffffffffffffffffffffffffffffffffffffff19169055565b600061031e61046c565b151561035e5760405160e560020a62461bcd02815260040180806020018281038252602a815260200180610707602a913960400191505060405180910390fd5b83600160a060020a03811615156103bf576040805160e560020a62461bcd02815260206004820152601760248201527f52657175697265732076616c696420616464726573732e000000000000000000604482015290519081900360640190fd5b8460018585604051808383808284379190910194855250506040519283900360200183208054600160a060020a0395861673ffffffffffffffffffffffffffffffffffffffff1990911617905550509086169085908590808383808284376040519201829003822094507f7cebcc2141a2d4b1edc32ce7242881b232d561c7446ece32afeefa7584af5bfc93506000925050a3506001949350505050565b600054600160a060020a031690565b600054600160a060020a0316331490565b600160a060020a031660009081526002602052604090205460ff1690565b60006104a561046c565b15156104e55760405160e560020a62461bcd02815260040180806020018281038252602a815260200180610707602a913960400191505060405180910390fd5b82600160a060020a0381161515610546576040805160e560020a62461bcd02815260206004820152601760248201527f52657175697265732076616c696420616464726573732e000000000000000000604482015290519081900360640190fd5b600160a060020a038416600081815260026020908152604091829020805460ff191660ff8816908117909155825190815291517f64571b1d54b8d82ee2e1e72597c87605970209a242618889ead3264599fb41c09281900390910190a25060019392505050565b600060018383604051808383808284379190910194855250506040519283900360200190922054600160a060020a03169250505092915050565b6105ef61046c565b151561062f5760405160e560020a62461bcd02815260040180806020018281038252602a815260200180610707602a913960400191505060405180910390fd5b600160a060020a03811615156106795760405160e560020a62461bcd0281526004018080602001828103825260258152602001806106e26025913960400191505060405180910390fd5b60008054604051600160a060020a03808516939216917f8be0079c531659141344cd1fd0a4f28419497f9722a3daafe3b4186f6b6457e091a36000805473ffffffffffffffffffffffffffffffffffffffff1916600160a060020a039290921691909117905556fe52657175697265732076616c6964206164647265737320666f72206e6577206f776e65722e4f776e6572206973206f6e6c7920616c6c6f77656420746f2063616c6c2074686973206d6574686f642ea165627a7a72305820ea7ff77bd790bca2240957e4fb4e5f47d061163ebfb59eca2d40ae52f2f7a48d0029",
  "source": "pragma solidity ^0.5.4;\n\nimport \"./IANSStorage.sol\";\nimport \"../lib/Ownable.sol\";\n\n/// @title Address Name Service Storage contract\ncontract ANSStorage is IANSStorage, Ownable {\n    mapping(string => address) private _nameRecords;\n    mapping(address => uint8) private _nameMinLimits;\n\n    /// @param owner Owner of the contract.\n    constructor(address owner) Ownable(owner) public validAddress(owner) {\n    }\n\n    /// @dev Note the validation of the name should happen in the library contract.\n    ///      Only the owner of this contract can call this.\n    /// @param addr Address to set the name for.\n    /// @param name Name to add a name record for. \n    /// @return True if the assignment succeeds.\n    function assignName(\n        address addr,\n        string calldata name)\n        external \n        onlyOwner \n        validAddress(addr)\n        returns (bool success) \n    {\n        _nameRecords[name] = addr;\n        emit NameAssigned(name, addr);\n        return true;\n    }\n\n    /// @dev Validation should happen in the library contract.\n    ///      Only the owner of this contract can call this.\n    /// @param addr Address to set the limit on.\n    /// @param limit Minimum length of any future added name records.\n    /// @return True if setting the limit succeeds.\n    function setMinLimit(\n        address addr, \n        uint8 limit) \n        external \n        onlyOwner \n        validAddress(addr)\n        returns (bool success) \n    {\n        _nameMinLimits[addr] = limit;\n        emit NameLimitSet(addr, limit);\n        return true;\n    }\n\n    /// @param name Name to resolve to an address.\n    /// @return Address associated with the name.\n    function resolveName(\n        string calldata name) \n        external \n        view \n        returns (address resolved) \n    {\n        return _nameRecords[name];\n    }\n\n    /// @param addr Address to find the min limit for.\n    /// @return Min limit of name length.\n    function getMinLimit(\n        address addr) \n        external \n        view \n        returns (uint8 limit) \n    {\n        return _nameMinLimits[addr];\n    }\n}\n",
  "sourcePath": "/Users/deric/coding/ghuchain/address-name-service/contracts/storage/ANSStorage.sol",
  "compiler": {
    "name": "solc",
    "version": "0.5.4+commit.9549d8ff.Emscripten.clang"
  },
  "schemaVersion": "3.0.2",
  "updatedAt": "2019-03-11T08:02:15.824Z",
  "devdoc": {
    "methods": {
      "assignName(address,string)": {
        "details": "Note the validation of the name should happen in the library contract.      Only the owner of this contract can call this.",
        "params": {
          "addr": "Address to set the name for.",
          "name": "Name to add a name record for. "
        },
        "return": "True if the assignment succeeds."
      },
      "constructor": {
        "params": {
          "owner": "Owner of the contract."
        }
      },
      "getMinLimit(address)": {
        "params": {
          "addr": "Address to find the min limit for."
        },
        "return": "Min limit of name length."
      },
      "isOwner()": {
        "return": "true if `msg.sender` is the owner of the contract."
      },
      "owner()": {
        "return": "the address of the owner."
      },
      "renounceOwnership()": {
        "details": "Allows the current owner to relinquish control of the contract."
      },
      "resolveName(string)": {
        "params": {
          "name": "Name to resolve to an address."
        },
        "return": "Address associated with the name."
      },
      "setMinLimit(address,uint8)": {
        "details": "Validation should happen in the library contract.      Only the owner of this contract can call this.",
        "params": {
          "addr": "Address to set the limit on.",
          "limit": "Minimum length of any future added name records."
        },
        "return": "True if setting the limit succeeds."
      },
      "transferOwnership(address)": {
        "details": "Allows the current owner to transfer control of the contract to a newOwner.",
        "params": {
          "newOwner": "The address to transfer ownership to."
        }
      }
    },
    "title": "Address Name Service Storage contract"
  },
  "userdoc": {
    "methods": {
      "renounceOwnership()": {
        "notice": "Renouncing to ownership will leave the contract without an owner. It will not be possible to call the functions with the `onlyOwner` modifier anymore."
      }
    }
  }
}